:020000040800F2
:10000000C0040020091E00088D0800088F080008A1
:1000100093080008970800089B08000800000000EB
:100020000000000000000000000000009F08000821
:10003000A108000800000000A3080008211E000815
:10004000231E0008231E0008231E0008231E00088C
:10005000231E0008231E0008231E0008231E00087C
:10006000231E0008231E0008231E0008231E00086C
:10007000231E0008231E0008231E0008231E00085C
:10008000231E0008231E0008231E0008231E00084C
:10009000231E0008231E0008231E0008231E00083C
:1000A000231E0008231E0008231E0008231E00082C
:1000B000231E0008231E0008231E0008231E00081C
:1000C000231E0008231E0008231E0008231E00080C
:1000D000231E0008231E0008DD140008231E00084C
:1000E000231E0008231E0008231E0008DFF80CD082
:1000F00003F036FD0048004781060008C0040020D8
:1001000070B50446F849204603F0AEFC00D2F64C28
:10011000F649204603F0B2FC00D2F44C204603F02E
:1001200078FC05462A460B46042001F07FF805209E
:1001300001F051FE70BD2DE9F04104461425B4FBD9
:10014000F5F8B4FBF5F005FB104600271CE0284647
:1001500001F041FE00F0A9FC042814D100F04BFE90
:10016000E3A20121084600F092FE01F0D8FA002037
:10017000E34908704FF4FA7001F02DFE00F03BFEE9
:100180000120BDE8F0817F1C4745E0D316B1304621
:1001900001F021FE0020F4E770B50025002400BF27
:1001A00016E001F07BFD05460021284603F066FCC1
:1001B00006D2D449284603F057FC01D2284670BD28
:1001C0003220FFF7B8FF08B1CF48F8E7601CC4B28F
:1001D000032CE6DBCC48F2E770B50446002120464C
:1001E00003F042FC01D2002070BD204603F011FC58
:1001F00005460022C54B03F01FFC01D20220F3E7A5
:10020000204603F006FC05460022C14B03F014FC17
:1002100001D20120E8E70020E6E770B504460E466B
:10022000BCA20121032000F032FE0021204603F091
:1002300025FC0FD8204603F0D8FB85B203232A46BD
:100240000A21184600F041FEB7A20D21032000F05C
:100250001EFE04E0B5A20A21032000F018FE70BDC6
:1002600010B50446B3480068401CB249086034B178
:10027000012C30D0022C44D0032C2BD18DE0AEA227
:100280000121084600F003FE00F0CCFC00F08FFCDA
:1002900000F0AEFC00F0EDFC01F041FAC820FFF7E1
:1002A0004AFF00B110BDA848FFF72AFF50210120E6
:1002B00000F0BCFF6421022000F0B8FF50210320B1
:1002C00000F0B4FF4FF49670FFF735FF00B1E9E797
:1002D00001F025FA6FE09DA20121084600F0D7FD4C
:1002E00000F07FFC00F063FC00F0A3FC00F0C1FC18
:1002F00001F015FA4FF44870FFF71DFF00B1D1E788
:1003000059E096A20121084600F0C1FD00F048FC2A
:1003100000F06EFC00F08DFC00F0ABFC854800782E
:1003200000F00100E0B991A20121022000F0AFFD30
:100330009348FFF7E5FE6E21012000F077FF46218C
:10034000022000F073FF6E21032000F06FFF4FF4D6
:100350001670FFF7F0FE00B1A4E701F0E0F91BE032
:100360007EA20121084600F092FD8648FFF7C8FEF4
:100370004621012000F05AFF6E21022000F056FFB6
:100380004621032000F052FF4FF41670FFF7D3FE12
:1003900000B187E701F0C3F90DE07BA20121084617
:1003A00000F075FD00F05FFC00F001FC00F020FCA7
:1003B00000F03FFC00BF00BF00BF73E710B577A29D
:1003C0000121084600F063FD78A20121022000F01F
:1003D0005EFD7BA20121032000F059FD7DA20121D9
:1003E000042000F054FD01F09AF9642001F0F3FCC0
:1003F00010BD70B5FFF7D0FE04464148007800B943
:1004000070BD2046FFF7E8FE054629462046FFF767
:1004100004FF2846FFF724FF3948007800B9EFE7CA
:100420004FF49660FFF787FE00B1E9E700BFE7E70A
:1004300010B500F0E0FC6CA20121084600F027FD99
:100440006DA20121022000F022FD00F0A9FB00F0C6
:10045000C8FB01F0AAFB00F0AAFB00F0C9FB00F00A
:10046000CAFC00202649087010BD10B500F0C3FC7E
:100470005DA20121084600F00AFD63A201210220CD
:1004800000F005FD00F0CEFB00F0EDFB01F0A6FB57
:100490004FF47A70FFF74FFE00B110BD00F0C9FBBA
:1004A00000F0E7FB00F0A7FC00201549087000BF32
:1004B000F3E710B500F0F9FA5749087008460078DC
:1004C00000280CD000F097FC53480078012807D092
:1004D000022806D0032805D0042804D1BCE0CEE0D1
:1004E0009CE0A7E0AFE0C3E0000034420000074317
:1004F0004D6F6465202D3E2049444C4500000000AE
:10050000000000200000FA43000080BF00002E40E1
:1005100000003E4044697374616E63653A20202098
:100520002020202000000000636D00004572726FE3
:10053000720000000400002020283E205F203C299B
:100540002052756E212020000000C84220286F2014
:100550005F204F292021212020202000202840201A
:100560005F204029203F3F20202020004143544964
:100570004F4E3A205455524E204C454654200000D0
:1005800000008C420000DC4253544154453A205450
:1005900055524E494E472E2E2E0000002020285E38
:1005A0002076205E29205A7A7A2000002020204DD3
:1005B0004F44453A2049444C45202020000000008B
:1005C000204B313A2041564F4944414E434520206B
:1005D00000000000204B323A2048454C4C4F204B45
:1005E000333A5349540000003D3D20414354494FA4
:1005F0004E203D3D000000002020285E206F205E40
:10060000292F2048692120002020282D202E202D50
:1006100029205369742020000100002064A20121D8
:10062000084600F034FC0120664908700020664945
:1006300008601DE065A20121084600F028FC0220A8
:100640006049087014E065A20121084600F01FFC13
:1006500003205C4908700BE0AFF26C1201210846E0
:1006600000F015FC01F05BF800205649087000BF4F
:1006700000BF4FF4967001F0AEFB00F0BCFB10BD64
:10068000002400F0C0FC00F063FA00F0FBF901F078
:10069000E5FA00F0FDFF00F0AEFB53A20121084691
:1006A00000F0F5FB54A20121022000F0F0FB56A25D
:1006B0000121032000F0EBFB00F0D5FA5748FFF7CB
:1006C0001FFD4FF4C870FFF736FD00B14DE05448F0
:1006D000FFF716FD4FF4C870FFF72DFD00B144E0A1
:1006E0005048FFF70DFD00F0C4FA4FA2012103208E
:1006F00000F0CDFB01F013F84FF44870FFF71BFD3D
:1007000000B132E04DA20121042000F0C0FBFFF750
:1007100043FD04460021204603F0B0F905D24CA267
:100720000121042000F0B3FB04E04EA201210420CB
:1007300000F0ADFB4FF47A70FFF7FDFC00B114E060
:1007400000F059FB4CA20121084600F0A0FB4CA28E
:100750000121032000F09BFB40F2DC50FFF7EBFC93
:1007600000B102E000F047FB00BF0020154908700F
:100770001CE0FFF79EFE1348007830B1012807D037
:10078000022808D003280CD108E0FFF717FE0CE080
:10079000FFF72FFE09E0FFF74BFE06E0FFF765FECF
:1007A00003E000200749087000BF00BFE1E7000038
:1007B0004D6F6465202D3E2041564F4944414E43C4
:1007C0004500000000000020040000204D6F64651B
:1007D000202D3E2048454C4C4F0000004D6F646575
:1007E000202D3E20534954004155544F2041564F2F
:1007F000494420444F470000496E697469616C693F
:100800007A696E672E2E2E0054657374696E6720A8
:10081000536572766F342E2E2E0000000000704259
:100820000000F0420000B442536572766F342054E9
:1008300065737420446F6E65200000005465737406
:10084000696E672055532053656E736F7200000008
:1008500055532053656E736F723A204F4B20202002
:100860000000000055532053656E736F723A2046A6
:1008700041494C20000000005245414459210000EC
:100880004D6F64653A2049444C450000704700BFF5
:10089000FEE700BFFEE700BFFEE700BFFEE77047D0
:1008A000704770470CB50020019000906C480068BC
:1008B00040F480306A49086000BF6948006800F46D
:1008C000003000900198401C0190009818B90198E0
:1008D000B0F5A06FF1D16248006800F4003010B1AB
:1008E0000120009001E0002000900098012843D1F1
:1008F0005C48006840F010005A49086008460068EB
:1009000020F0030008600846006840F0020008601C
:100910005348406852494860084640684860084665
:10092000406840F4806048600846406820F47C10CD
:1009300048600846406840F4E8104860084600688F
:1009400040F08070086000BF4548006800F000700B
:100950000028F9D04248406820F003004049486030
:100960000846406840F00200486000BF3C484068CC
:1009700000F00C000828F9D10CBD10B5FFF792FF6C
:1009800010BD10B53648006840F0010034490860D9
:1009900008464068344908403149486008460068C4
:1009A000324908402E4908600846006820F480203B
:1009B00008600846406820F4FE0048604FF41F00BD
:1009C0008860FFF7DAFF4FF000602949086010BD2A
:1009D00010B5002100200022214B5B6803F00C01C0
:1009E00021B1042906D0082928D107E0214B224C47
:1009F000236027E01F4B204C236023E0184B5B68EB
:100A000003F47010164B5B6803F48032022303EB8F
:100A1000904022B9194B4343174C23600DE0104B13
:100A20005B6803F4003323B1144B4343124C23603F
:100A300003E0104B4343104C236003E00D4B0E4C7E
:100A4000236000BF00BF064B5B68C3F303130C4C6D
:100A5000E15C094B1B68CB40074C236010BD0000D4
:100A600000100240002002400000FFF8FFFFF6FEE9
:100A700008ED00E000127A000800002000093D00A7
:100A80000C00002008B50121042001F059FD482088
:100A90008DF80300C320ADF8000003208DF802009C
:100AA00069462A4801F090FA08BD10B5002480215B
:100AB000264801F01CFB68B9142001F08CF900BF36
:100AC0008021224801F013FB0028F9D0142001F006
:100AD00082F9012440211D4801F009FB68B9142066
:100AE00001F079F900BF4021184801F000FB00280F
:100AF000F9D0142001F06FF902240221134801F00B
:100B0000F6FA68B9142001F066F900BF02210F4817
:100B100001F0EDFA0028F9D0142001F05CF903246B
:100B200001210A4801F0E3FA68B9142001F053F9F1
:100B300000BF0121054801F0DAFA0028F9D014209D
:100B400001F049F90424204610BD000000080140CE
:100B500008B501210D2001F0F3FC0121504801F0FE
:100B600004FB10208DF803004FF41840ADF800008E
:100B700003208DF8020069464A4801F025FA082052
:100B8000ADF800006946484801F01EFA4FF41841DC
:100B9000444801F0C6FA0821434801F0C2FA08BDF2
:100BA00010B54FF400613F4801F0BDFA10BD10B51B
:100BB0004FF400613B4801F0B4FA10BD10B54FF49A
:100BC0000061384801F0A0FA28B94FF400613548B7
:100BD00001F0A7FA04E04FF40061324801F0A3FAF3
:100BE00010BD10B54FF480512E4801F09CFA10BD95
:100BF00010B54FF480512B4801F093FA10BD10B599
:100C00004FF48051274801F07FFA28B94FF4805102
:100C1000244801F086FA04E04FF48051214801F0A5
:100C200082FA10BD10B54FF400411E4801F07BFA66
:100C300010BD10B54FF400411A4801F072FA10BD12
:100C400010B54FF40041174801F05EFA28B94FF48F
:100C50000041144801F065FA04E04FF400411148E6
:100C600001F061FA10BD10B508210F4801F05BFAE0
:100C700010BD10B508210C4801F053FA10BD10B595
:100C80000821094801F040FA20B90821064801F07E
:100C900048FA03E00821044801F045FA10BD0000BD
:100CA0000002300000080140000C014008B501219D
:100CB000082001F045FC14208DF8030003208DF876
:100CC00002004020ADF800006946FA4801F07CF9C6
:100CD0008020ADF800006946F64801F075F9012260
:100CE0004021F44801F021FA01228021F14801F06D
:100CF0001CFA08BD10B501228021EE4801F015FA5A
:100D000001224021EB4801F010FA00228021E9483D
:100D100001F00BFA00224021E64801F006FA10BD6E
:100D200010B500228021E34801F0FFF901224021A3
:100D3000E04801F0FAF901228021DE4801F0F5F9DE
:100D400010BD70B50546002417E0802020412840E2
:100D500008B1012000E0002002468021D54801F0C2
:100D6000E4F901224021D34801F0DFF900224021BB
:100D7000D04801F0DAF9601CC4B2082CE5DB01228E
:100D80004021CC4801F0D1F900224021C94801F0AE
:100D9000CCF970BD10B50446FFF7ACFF7820FFF723
:100DA000D0FF0020FFF7CDFF2046FFF7CAFFFFF777
:100DB000B7FF10BD10B50446FFF79CFF7820FFF782
:100DC000C0FF4020FFF7BDFF2046FFF7BAFFFFF747
:100DD000A7FF10BD70B505460C4645F0B000FFF703
:100DE000D9FF102141EA1410FFF7D4FF04F00F00DF
:100DF000FFF7D0FF70BD70B500240EE00021204643
:100E0000FFF7E8FF002504E00020FFF7D3FF681C90
:100E1000C5B2802DF8DB601CC4B2082CEEDB70BDBF
:100E20002DE9F04105460E461746721ED206110EF8
:100E30006A1E5206100EFFF7CDFF002409E0A7F14D
:100E400020019D4A02EB0111085DFFF7B3FF601C12
:100E5000C4B2082CF3DB721ED206110E6A1E0123E7
:100E600003EB4202D0B2FFF7B5FF00240BE0A7F17D
:100E70002001914A02EB011204F10801505CFFF7D6
:100E800099FF601CC4B2082CF1DBBDE8F0812DE9AC
:100E9000F04107460E461546002407E02A5D30194A
:100EA000C1B23846FFF7BCFF601CC4B2285D002801
:100EB000F4D1BDE8F08110B50246012000E05043B6
:100EC0000B00A1F10101FAD110BD2DE9F0478046D8
:100ED0000E4617461D46002415E0281B411E0A2019
:100EE000FFF7E9FFB7FBF0F00A21B0FBF1F201FBDD
:100EF000120000F130093019C1B24A464046FFF7EE
:100F00008FFF601CC4B2AC42E7DBBDE8F0872DE97F
:100F1000F0478146884615461E46002D06DB2B22EB
:100F200041464846FFF77CFF2F4605E02D2241460B
:100F30004846FFF775FF6F42002417E0301B411E43
:100F40000A20FFF7B8FFB7FBF0F00A21B0FBF1F27F
:100F500001FB120000F1300A08EB0400401CC1B292
:100F600052464846FFF75CFF601CC4B2B442E5DB62
:100F7000BDE8F0872DE9F04781460E4690461F46B2
:100F800000241DE0381B411E1020FFF794FFB8FB22
:100F9000F0F000F00F050A2D08DA05F13000C2B2BA
:100FA0003019C1B24846FFF73BFF07E005F13700B3
:100FB000C2B23019C1B24846FFF732FF601CC4B25A
:100FC000BC42DFDBBDE8F0872DE9F04780460E46E6
:100FD00017461D46002412E0281B411E0220FFF781
:100FE0006AFFB7FBF0F000F0010000F130093019A2
:100FF000C1B24A464046FFF713FF601CC4B2AC4280
:10100000EADBBDE8F08770B5002406E0002500E0CB
:101010006D1CB5F57A7FFBD3641CB4F57A7FF5D3EC
:10102000FFF744FEAE20FFF7B5FED520FFF7B2FE76
:101030008020FFF7AFFEA820FFF7ACFE3F20FFF7B0
:10104000A9FED320FFF7A6FE0020FFF7A3FE402055
:10105000FFF7A0FEA120FFF79DFEC820FFF79AFE34
:10106000DA20FFF797FE1220FFF794FE8120FFF7AA
:1010700091FECF20FFF78EFED920FFF78BFEF120E7
:10108000FFF788FEDB20FFF785FE3020FFF782FEAA
:10109000A420FFF77FFEA620FFF77CFE8D20FFF740
:1010A00079FE1420FFF776FEAF20FFF773FEFFF7FF
:1010B000A2FE70BD000C0140423E000800B589B0A0
:1010C0000121084601F03CFA0121524801F04DF897
:1010D0000121062001F041FA0121082001F030FA37
:1010E00018208DF8230003208DF822000220ADF88F
:1010F000200008A9484800F067FF1020ADF8200044
:1011000008A9454800F060FF4FF48070ADF820005A
:1011100008A9414800F058FF4FF40070ADF82000D6
:1011200008A93D4800F050FF05A801F06DFE002021
:10113000ADF81A00ADF8160044F61F60ADF81800BF
:101140004720ADF8140005A9344801F031FB05A98A
:10115000334801F02DFB01A801F05FFE6020ADF8DF
:1011600004000020ADF80C000120ADF8060040F2AC
:10117000DC50ADF80A0001A9284801F056FB01A98E
:10118000264801F02CFC01A9254801F0DDFB01A94E
:10119000234801F024FC0821204801F095FF082194
:1011A0001E4801F0B0FF08211D4801F0A3FF0821EF
:1011B0001B4801F0A8FF0121184801F055FF01214B
:1011C000174801F051FF0121144801F04DFE0121A3
:1011D000134801F049FE09B000BD10B50446214690
:1011E0000E4802F0DFF810BD10B5044621460B484A
:1011F00002F0D2F810BD10B504462146084802F0AE
:10120000CFF810BD10B504462146054802F0CAF8D3
:1012100010BD000000023000000C0140000400403E
:101220000008004010B5FFF749FF10BD2DE9F04759
:1012300005460E462949304602F016FC00D2274EDC
:101240002749304602F01AFC00D2254E042D0BD15E
:101250002449304602F008FC00D2224E2249304692
:1012600002F00CFC00D2204E2049304602F07AFBFE
:1012700081461F4902F044FB80461E4902F0E8FA0D
:10128000074602F0B2FB84B2B4F5FA7F01DA4FF4FC
:10129000FA7440F6C410844200DD0446012D06D0E5
:1012A000022D08D0032D0AD0042D10D10BE02046CA
:1012B000FFF793FF0BE02046FFF796FF07E020467D
:1012C000FFF799FF03E02046FFF79CFF00BF00BF38
:1012D000022000F080FDBDE8F08700000000F04132
:1012E000000016430000204200000C43000034437D
:1012F0000000FA440000FA4310B504460BE014F86D
:10130000011B894802F0CAF900BF4021864802F05B
:1013100033FA0028F9D020780028F0D110BD00B5AC
:1013200087B00121052001F00BF90121480401F0EB
:1013300014F90420ADF8180018208DF81B000320C4
:101340008DF81A0006A9794800F03EFE0820ADF895
:10135000180004208DF81B0006A9744800F034FE24
:101360004FF4165002900020ADF80C00ADF80E00BE
:10137000ADF81000ADF814000C20ADF8120002A971
:10138000694802F092F8012240F22551664802F0C5
:1013900024F926208DF8040001208DF805008DF831
:1013A00006008DF8070001A800F045FD01215E4808
:1013B00002F007F95EA0FFF79FFF60A0FFF79CFF18
:1013C00007B000BD70B505460E4600240CE0295D4F
:1013D000554802F063F900BF4021534802F0CCF9B0
:1013E0000028F9D0601C84B2B442F0DB70BD5948CB
:1013F000007828B100205749087057480078704796
:101400000020FCE755480078704752480078704744
:1014100010B588B004462046502C2ED00CDC46284F
:101420001BD004DC42281CD044283AD12DE04C28A3
:101430001BD04D2835D12CE05238072831D2DFE8B7
:1014400000F01804082030302C0045A0FFF754FFAE
:1014500030E047A0FFF750FF2CE048A0FFF74CFF1B
:1014600028E04AA0FFF748FF24E04CA0FFF744FF24
:1014700020E04FA0FFF740FF1CE052A0FFF73CFF29
:1014800018E053A0FFF738FF14E055A0FFF734FF32
:1014900010E058A0FFF730FF0CE05BA0FFF72CFF37
:1014A00008E022465CA1684602F08CFB6846FFF724
:1014B00023FF00BF00BF08B010BD10B590B000F012
:1014C000ECFA044623462548027858A1684602F003
:1014D00079FB6846FFF710FF10B010BD10B540F261
:1014E0002551114802F05EF9E8B10F4802F0DAF830
:1014F000C4B2412C11DB5A2C0FDC174804700120B8
:10150000144908702146084802F0C8F800BF40217D
:10151000054802F031F90028F9D040F2255102487F
:1015200002F06AF900BF10BD00440040000801400D
:1015300042542052656164790D0A0000536D617256
:101540007420446F6720436F6E6E65637465640D2D
:101550000A0000001E0000201F00002020000020C4
:10156000434D443A205374616E640D0A000000003C
:10157000434D443A205369740D0A0000434D443AE8
:1015800020466F72776172640D0A0000434D443A41
:10159000204261636B776172640D0A00434D443AE7
:1015A000205475726E204C6566740D0A00000000B0
:1015B000434D443A205475726E2052696768740D29
:1015C0000A000000434D443A2053746F700D0A0026
:1015D000434D443A2053706565642055700D0A00F0
:1015E000434D443A20537065656420446F776E0D17
:1015F0000A000000434D443A2054657374204D6F37
:1016000064650D0A00000000434D443A20526573A2
:1016100065740D0A00000000556E6B6E6F776E20CA
:10162000434D443A2025630D0A0000005374617451
:1016300075733A204D6F64653D25642C20537065A9
:1016400065643D25640D0A002DE9F04104460F460E
:1016500015461E4621460220FFF7E8FD39460120C7
:10166000FFF7E4FD29460320FFF7E0FD31460420A3
:10167000FFF7DCFDBDE8F08110B5FE4B1A461946B8
:101680001846FFF7E1FF4FF4FA7000F0A4FB10BD1D
:1016900010B5FFF7C7FDFFF7EFFF10BD2DE9F84FBD
:1016A00081460C4615461E460A20009027462146D4
:1016B000284602F01FF98046EF4902F053F98246AE
:1016C0000A2096FBF0F01FFA80FB4FF000080FE0B5
:1016D00039464846FFF7AAFD5146384602F0B8F8A9
:1016E0000746584600F077FB08F1010000F0FF08BC
:1016F000B8F10A0FECDDBDE8F88F012803DB0A28FA
:1017000001DCDE4908707047DD490860704710B59C
:10171000DB48006810B1DA480068804710BD10B59A
:10172000D848016B0220FFF781FDD648816901206E
:10173000FFF77CFDD348816C0320FFF777FDD1488C
:10174000016E0420FFF772FD10BD10B5CD4C636E25
:10175000E26CE169606BFFF777FF4FF4FA7000F01D
:101760003AFB10BD2DE9F0410546C4480078C0EBB6
:101770000010C0F1C80084B2002666E0C148816B49
:101780000220FFF753FDBF48C16A0120FFF74EFD5D
:10179000BC48C16D0320FFF749FDBA48816E0420A3
:1017A000FFF744FD274604EBD771481000F013FB08
:1017B000B448C16B0220FFF739FDB248816A0120AD
:1017C000FFF734FDAF48816D0320FFF72FFDAD48D3
:1017D000C16E0420FFF72AFD04EBD771481000F01A
:1017E000FAFAA848416C0220FFF720FDA548016ADB
:1017F0000120FFF71BFDA348016D0320FFF716FD35
:10180000A048416F0420FFF711FD04EBD771481089
:1018100000F0E1FA9B48016C0220FFF707FD9948B0
:10182000416A0120FFF702FD9648416D0320FFF752
:10183000FDFC9448016F0420FFF7F8FC04EBD7711E
:10184000481000F0C8FA701CC6B2AE4296DBFFF733
:1018500066FFBDE8F0812DE9F04105468748007834
:10186000C0EB0010C0F1C80084B2002635E0854FFF
:10187000BB6EFA6DF96AB86BFFF7E6FE274604EB1C
:10188000D771481000F0A7FA7E4FFB6EBA6DB96AA7
:10189000F86BFFF7D9FE274604EBD771481000F02C
:1018A0009AFA784F7B6F3A6D396A786CFFF7CCFE05
:1018B000274604EBD771481000F08DFA714F3B6F4B
:1018C0007A6D796A386CFFF7BFFE274604EBD77153
:1018D000481000F080FA701CC6B2AE42C7DBFFF7BA
:1018E0001EFFBDE8F08170B504466448007800EB47
:1018F00080004FF49671A1EB800086B2002527E0AE
:1019000061490220FFF792FC60490120FFF78EFC3D
:101910005D490320FFF78AFC5C490420FFF786FC41
:10192000304600F058FA59490220FFF77FFC56492B
:101930000120FFF77BFC55490320FFF777FC524954
:101940000420FFF773FC304600F045FA681CC5B26E
:10195000A542D5DBFFF7E3FE70BD2DE9F04104465B
:101960004648007800EB80004FF49671A1EB8000B0
:1019700086B2002514E0434FBB6EFA6DF96AB86B6E
:10198000FFF762FE304600F026FAFB6EBA6DB96AC8
:10199000F86BFFF759FE304600F01DFA681CC5B21F
:1019A000A542E8DBFFF7BBFEBDE8F08110B5FFF70D
:1019B000B6FE10BD10B500210220FFF737FC4FF432
:1019C000FA7000F008FA32490220FFF72FFC4FF4BA
:1019D000FA7000F000FA27490220FFF727FC4FF4C5
:1019E000FA7000F0F8F900210120FFF71FFC4FF416
:1019F000FA7000F0F0F926490120FFF717FC4FF4C8
:101A0000FA7000F0E8F91B490120FFF70FFC4FF4D2
:101A1000FA7000F0E0F900210320FFF707FC4FF413
:101A2000FA7000F0D8F91A490320FFF7FFFB4FF4D2
:101A3000FA7000F0D0F90F490320FFF7F7FB4FF4DD
:101A4000FA7000F0C8F900210420FFF7EFFB4FF413
:101A5000FA7000F0C0F90E490420FFF7E7FB4FF4DD
:101A6000FA7000F0B8F903490420FFF7DFFB4FF4E8
:101A7000FA700FE00000B442000020412400002072
:101A8000280000202C00002000008C420000DC42D6
:101A90000000344300F09FF910BD6448007870479F
:101AA000F0B505AC70CC012820DB04281EDC00EB6F
:101AB0004007DFF87CC14CF8371000EB40070CEB17
:101AC000C7077A6000EB40070CEBC707BB6000EB71
:101AD00040070CEBC707FC6000EB40070CEBC707A7
:101AE0003D6100EB40070CEBC7077E61F0BD70B5B0
:101AF00005460C46012C0BDB042C09DC04EB4400EE
:101B00004B4A02EBC0011822284601F08FFE70BD3F
:101B100018224749284601F089FE00BFF7E72DE962
:101B2000F04105464148007800EB8000FA21A1EB26
:101B3000800084B2002632E03E4B3F4A19461046F0
:101B4000FFF782FD2746E11704EB9171881000F042
:101B500042F93A4B3A4A11461846FFF775FDE1172C
:101B600004EB9171881000F036F9364B364A114675
:101B70001846FFF769FDE11704EB9171881000F03A
:101B80002AF9324B1A4619461846FFF75DFDE11750
:101B900004EB9171881000F01EF9701CC6B2AE42C1
:101BA000CADBFFF7BCFDBDE8F08110B5002410E0F2
:101BB00027490120FFF73AFB4FF4967000F00BF92C
:101BC00022490120FFF732FB4FF4967000F003F931
:101BD000641C022CECDBFFF7A2FD10BD10B51D4B01
:101BE0001D4A11461846FFF72FFD4FF47A7000F09A
:101BF000F2F810BD10B5002412E00E4B0E4A194643
:101C00001046FFF721FD962000F0E5F80A4B094A3F
:101C100019461046FFF718FD962000F0DCF8641C0A
:101C2000032CEADBFFF77BFD10BD00002400002041
:101C30002C0000200000AA420000BE420000DC424E
:101C400000008C420000C8420000A0420000B442E4
:101C500000003442000070420000F04208B501214B
:101C6000042000F06DFC1020ADF800008DF803009A
:101C700003208DF8020069463A4800F0A5F92020BB
:101C8000ADF8000028208DF803006946354800F0C3
:101C90009BF91021334800F046FA08BD2DE9F041C8
:101CA00000250024002630480068401C2E490860AA
:101CB00010212C4800F035FA142000F075F810219E
:101CC000284800F030FA294D06E02800A5F101056A
:101CD00002D12748BDE8F0812021224800F007FA10
:101CE0000028F2D000244CF250350AE0641C012098
:101CF00000F05AF82800A5F1010502D14FF040404C
:101D0000E8E72021174800F0F2F90128EED0194841
:101D10000460204601F064FE0746174901F0F0FD1B
:101D200006463046D6E700B589B014A2012102204C
:101D3000FFF7ADF80C4816A1026801A801F042FFB8
:101D400001AA01210320FFF7A2F80A4813A10268A3
:101D500001A801F037FF01AA01210420FFF797F83D
:101D600009B000BD00080140A4000020A0860100C9
:101D7000000080BFA800002096438B3C446562753C
:101D8000673A202020202020202020200000000072
:101D9000546F75743A256C750000000054696D65C8
:101DA0003A256C750000000000EBC001C9004FF03F
:101DB000E0225161002191610521116100BF4FF0C6
:101DC000E021096901F480310029F8D004214FF0A5
:101DD000E0221161704700B5034603E04FF47A70CA
:101DE000FFF7E2FF1800A3F10103F7D100BD10B522
:101DF000044603E04FF47A70FFF7EDFF2000A4F1F2
:101E00000104F7D110BD000006488047064800478E
:101E1000FEE7FEE7FEE7FEE7FEE7FEE7FEE7FEE79A
:101E2000FEE7FEE783090008ED00000831490143A1
:101E3000314A1160704770B5002100230F22C47829
:101E400004B32D4C246804F4E064C4F5E064210A72
:101E5000C1F10403CA40447804FA03F184781440C1
:101E600021430901254C0678A155047804F01F058B
:101E70000124AC4005786D11AD0005F1E025C5F8F1
:101E8000004109E0047804F01F050124AC401C4D1A
:101E90000678761145F8264070BD1A4A0A4002437A
:101EA000154B1B1F1A60704739B1134A121D126877
:101EB0000243114B1B1D1A6006E00F4A121D1268E7
:101EC00082430D4B1B1D1A607047042808D14FF048
:101ED000E021096941F004014FF0E022116107E0BF
:101EE0004FF0E021096921F004014FF0E022116177
:101EF000704700000000FA050CED00E000E400E08F
:101F000080E100E080FFFF1F10B50446CC4884420A
:101F100008D10121042000F02DFB0021042000F055
:101F200029FB46E0C748844208D10121082000F07F
:101F300021FB0021082000F01DFB3AE0C24884424A
:101F400008D10121102000F015FB0021102000F025
:101F500011FB2EE0BD48844208D10121202000F071
:101F600009FB0021202000F005FB22E0B848844254
:101F700008D10121402000F0FDFA0021402000F0AE
:101F8000F9FA16E0B348844208D10121802000F01C
:101F9000F1FA0021802000F0EDFA0AE0AE48844218
:101FA00007D10121801500F0E5FA0021A01500F00D
:101FB000E1FA10BD10B50121084600F0DBFA00215E
:101FC000012000F0D7FA10BD2DE9F04102460025AE
:101FD0000026002000230024002791F803C00CF005
:101FE0000F0591F803C00CF0100CBCF1000F03D0EA
:101FF00091F802C04CEA050591F800C0BCF1000F51
:1020000031D0146800202BE04FF0010C0CFA00F3E3
:10201000B1F800C00CEA03069E4220D183004FF0C5
:102020000F0C0CFA03F7BC4305FA03FC4CEA04045A
:1020300091F803C0BCF1280F06D14FF0010C0CFA47
:1020400000FCC2F814C00AE091F803C0BCF1480FCC
:1020500005D14FF0010C0CFA00FCC2F810C0401C76
:102060000828D1D31460B1F800C0BCF1FF0F34DDF3
:10207000546800202EE000F1080C4FF0010808FA27
:102080000CF3B1F800C00CEA03069E4221D1830094
:102090004FF00F0C0CFA03F7BC4305FA03FC4CEAB3
:1020A000040491F803C0BCF1280F05D100F1080C1D
:1020B00008FA0CF8C2F8148091F803C0BCF1480F7C
:1020C00007D100F1080C4FF0010808FA0CF8C2F82B
:1020D0001080401C0828CED35460BDE8F0814FF634
:1020E000FF710180022181700421C1707047024696
:1020F000002093680B400BB1012000E000207047E6
:102100000146886880B2704702460020D3680B40C1
:102110000BB1012000E0002070470146C86880B282
:10212000704701617047416170470AB1016100E089
:1021300041617047C16070474FF480320A43826149
:102140008161826182698269704702460020434B47
:1021500018684FF68073184040EA021008433F4B5E
:10216000186070473E49C8617047F0B50A460023C1
:1021700000240021002500F00046B6F1004F02D1F6
:10218000364EF16901E0354E7168C0F3034583B204
:1021900000F44016B6F5401F08D121F070612F4EB3
:1021A000766826F070662D4F7E6012E000F480168F
:1021B000B6F5801F06D1032606FA05F4A14341F0C7
:1021C000706106E0460D360103FA06F6B14341F0B0
:1021D000706122B1460D360103FA06F6314300F074
:1021E0000046B6F1004F02D11C4EF16101E01B4EDA
:1021F0007160F0BD30B500228B071C0F0F2303FA6E
:1022000004F2164B08338C1053F824309343134CCC
:1022100008348D1044F8253023468C1053F82430B0
:102220008C07240F00FA04F423430C4C08348D105F
:1022300044F8253030BD0A49DC31086070470000A1
:1022400000080140000C0140001001400014014052
:1022500000180140001C0140002001400000014026
:1022600000002042DF48006840F00100DD490860BE
:1022700008464068DC490840DA494860084600687A
:10228000DA490840D74908600846006820F48020F1
:1022900008600846406820F4FE0048604FF41F00C4
:1022A00088607047CF49096821F48031CD4A1160B8
:1022B0001146096821F480211160B0F5803F03D0F8
:1022C000B0F5802F0ED106E0C649096841F480318F
:1022D000C44A116007E0C349096841F4A021C14A1A
:1022E000116000E000BF00BF704710B5014600223A
:1022F000002300204A11012A02D1BA4C236806E0CB
:10230000022A02D1B74C236A01E0B64C636A01F09D
:102310001F02012494401C400CB1012000E0002069
:1023200010BD38B5002000900024002500BF3120EA
:10233000FFF7DBFF05460098401C00900098B0F5C1
:10234000A06F01D0002DF2D03120FFF7CEFF08B1F1
:10235000012400E00024204638BD01460020A14AA7
:10236000106820F0F80040EAC10010607047A049F2
:1023700008607047024600209A4B586820F47C1091
:1023800042EA01031843974B586070479849086622
:10239000704701460020934A506820F0030008432C
:1023A000506070478F48406800F00C00704701464D
:1023B00000208C4A506820F0F000084350607047BD
:1023C00001460020874A506820F4E06008435060CE
:1023D000704701460020834A506820F4605040EA6C
:1023E000C1005060704729B17E4A527A02437D4B4A
:1023F0005A7204E07B4A527A82437A4B5A7270478F
:102400007B49D8310860704701460020754A506802
:1024100020F440400843506070470021714A203248
:102420001170704A82F82010012802D004280AD1C5
:1024300004E001216B4A2032117005E00521694A50
:102440002032117000E000BF00BF7047694908608A
:1024500070476449096A0143624A116270476549DD
:1024600044390860704730B5002100220024002361
:102470005C4D6D6805F00C0121B1042905D00829D7
:1024800023D105E05C4D056022E05B4D05601FE057
:10249000544D6D6805F47012524D6D6805F480342A
:1024A000022505EB92421CB9544D554305600BE0E3
:1024B0004C4D6D6805F400351DB1504D5543056018
:1024C00002E04D4D5543056002E04B4D056000BFF5
:1024D00000BF444D6D6805F0F0010909484D6B5C83
:1024E0000568DD4045603F4D6D6805F4E061090A0F
:1024F000434D6B5C4568DD4085603A4D6D6805F481
:102500006051C90A3E4D6B5C4568DD40C560354D84
:102510006D6805F44041890B3A4D6B5CC568B5FBAD
:10252000F3F5056130BD29B12E4A526902432D4BA6
:102530005A6104E02B4A526982432A4B5A61704720
:1025400029B1284A92690243264B9A6104E0254A40
:1025500092698243234B9A61704729B1214AD2691B
:102560000243204BDA6104E01E4AD26982431D4BCC
:10257000DA61704729B11B4AD2680243194BDA600D
:1025800004E0184AD2688243164BDA60704729B1DA
:10259000144A12690243134B1A6104E0114A12698A
:1025A0008243104B1A6170471249403908607047E6
:1025B0000F49C86470470B49C87170470948406AA1
:1025C00040F0807007494862704701460020054A84
:1025D00092680A400AB1012000E0002070470149DA
:1025E00088727047001002400000FFF8FFFFF6FEFF
:1025F000000042428004424200127A0000093D007D
:10260000AC000020BC00002010B50446FE48844207
:1026100008D10121C014FFF7ADFF0021E014FFF73E
:10262000A9FFC4E0B4F1804F08D101210846FFF7AB
:10263000AEFF00210120FFF7AAFFB8E0F348844273
:1026400008D101210220FFF7A2FF00210220FFF79D
:102650009EFFACE0EE48844208D101210420FFF740
:1026600096FF00210420FFF792FFA0E0E948844292
:1026700008D101210820FFF78AFF00210820FFF779
:1026800086FF94E0E448844208D101211020FFF73E
:102690007EFF00211020FFF77AFF88E0DF488442A8
:1026A00008D101212020FFF772FF00212020FFF731
:1026B0006EFF7CE0DA48844208D101214014FFF724
:1026C00059FF00216014FFF755FF70E0D5488442A0
:1026D00009D10121C804FFF74DFF00214FF400206C
:1026E000FFF748FF63E0D048844209D10121080583
:1026F000FFF740FF00214FF48010FFF73BFF56E04B
:10270000CA48844209D101214805FFF733FF00215F
:102710004FF40010FFF72EFF49E0C548844208D16E
:1027200001214020FFF733FF00214020FFF72FFF5A
:102730003DE0C048844208D101218020FFF727FFF7
:1027400000218020FFF723FF31E0BB48844208D1FD
:1027500001218015FFF71BFF0021A015FFF717FFD0
:1027600025E0B648844209D101210804FFF702FFA1
:1027700000214FF48030FFF7FDFE18E0B04884429E
:1027800009D101214804FFF7F5FE00214FF4003084
:10279000FFF7F0FE0BE0AB48844208D1012188042A
:1027A000FFF7E8FE00214FF48020FFF7E3FE10BDA5
:1027B00000220288944B98420ED0994B98420BD03D
:1027C000B0F1804F08D0914B984205D0904B984281
:1027D00002D0904B984204D14FF68F731A404B8829
:1027E0001A438D4B984207D08C4B984204D04FF639
:1027F000FF431A40CB881A4302808B8883850B885D
:102800000385814B98420BD0854B984208D08B4B67
:10281000984205D08A4B984202D08A4B984201D107
:102820000B7A038601238382704770B5002400224F
:102830000023058C4FF6FE7635400584028C838894
:10284000048B4FF68F752C40B51E2C400D882C4301
:10285000751E2A400D892A434D882A436A4DA84295
:102860000BD06F4DA84208D0744DA84205D0744DCE
:10287000A84202D0734DA84213D14FF6F7752A40F3
:102880004D892A434FF6FB752A408D882A434FF61F
:10289000FF652B404FF6FF552B408D892B43CD898B
:1028A0002B4383800483CD888586028470BD70B5F8
:1028B000002400220023058C4FF6EF763540058476
:1028C000028C8388048B48F6FF752C404FF6FF4539
:1028D0002C400D884FF6FF7606EA05252C434FF66F
:1028E000DF752A400D8906EA05152A434D8806EA58
:1028F00005152A43444DA84202D0494DA8421DD196
:102900004FF67F752A404D894FF6FF7606EA05158A
:102910002A434FF6BF752A408D8806EA05152A43DB
:102920004FF6FF352B404FF2FF752B408D8906EA9D
:1029300085052B43CD8906EA85052B4383800483D7
:10294000CD880587028470BD70B500240022002365
:10295000058C4FF6FF6635400584028C8388848B96
:102960004FF68F752C404FF6FC752C400D882C438C
:102970004FF6FF552A400D894FF6FF7606EA0525EA
:102980002A434D8806EA05252A431F4DA84202D056
:10299000234DA8421DD14FF2FF752A404D894FF6B5
:1029A000FF7606EA05252A434FF6FF352A408D8833
:1029B00006EA05252A434EF6FF752B404DF6FF75B6
:1029C0002B408D8906EA05152B43CD8906EA0515AE
:1029D0002B4383808483CD888587028470BD70B546
:1029E000002200230024058C4EF6FF763540058436
:1029F000038C8488828B48F6FF752A404FF6FF458A
:102A00002A400D8820E00000002C01400004004016
:102A100000080040000C004000100040001400407E
:102A200000340140004C014000500140005401407E
:102A300000180040001C0040002000400040014001
:102A400000440140004801404FF6FF7606EA0525A4
:102A50002A434DF6FF752B400D8906EA05352B43B9
:102A60004D8806EA05352B43FA4DA84202D0FA4DAF
:102A7000A84208D14BF6FF752C408D894FF6FF76A2
:102A800006EA85152C4384808283CD88A0F84050C7
:102A9000038470BD828B4FF2FF331A408283828B96
:102AA0004FF6FF7303EA01231A4382837047F0B5A0
:102AB0000C461546002200210026078C4EF6FF7CAE
:102AC00007EA0C070784828B018C4FF6FF7707EA31
:102AD000043640F6FF473A404FF6FF7707EA0527EE
:102AE0003A434FF6FF7707EA03373A43D94FB842E4
:102AF0000ED0D94FB8420BD0B0F1804F08D0D74F8D
:102B0000B84205D0D64FB84202D0D64FB84206D10F
:102B10004DF6FF77394046F48057394305E047F6D4
:102B2000FF57394044F48057394382830184F0BD14
:102B3000828B4FF6F3731A408283828B0A4382831F
:102B40007047F0B50C461546002200210026078C80
:102B50004FF6FF6C07EA0C070784828B018C4FF657
:102B6000FF7707EA04264FF60C773A404FF6FF77D7
:102B700007EA03172F433A43B64FB8420ED0B64F79
:102B8000B8420BD0B0F1804F08D0B44FB84205D056
:102B9000B34FB84202D0B34FB84206D14FF6FF57F9
:102BA000394046F48077394305E04FF2FF5739400A
:102BB00044F48077394382830184F0BD028B4FF265
:102BC000FF331A400283028B4FF6FF7303EA01239F
:102BD0001A4302837047F0B50C46154600220021C7
:102BE0000026078C4FF6EF7C07EA0C070784028B60
:102BF000018C4FF6FF7707EA041640F6FF473A408C
:102C00004FF6FF7707EA03373A434FF6FF7707EAB5
:102C100005273A438F4FB8420ED08F4FB8420BD0A2
:102C2000B0F1804F08D08D4FB84205D08C4FB842DC
:102C300002D08C4FB84206D14FF6DF77394046F0CC
:102C40001007394305E04FF65F77394044F010072D
:102C5000394302830184F0BD028B4FF6F3731A40AF
:102C60000283028B0A4302837047F0B50C46154677
:102C700000220021068C4FF6FE773E400684028B30
:102C8000018C4FF60C7632407E1C06EA03162E436A
:102C90003243704EB0420ED06F4EB0420BD0B0F106
:102CA000804F08D06D4EB04205D06D4EB04202D07C
:102CB0006C4EB04206D14FF6FD76314044F001062D
:102CC000314305E04FF6F576314044F001063143DB
:102CD00002830184F0BD70B505460C465D4885420F
:102CE0000ED05D4885420BD0B5F1804F08D05B48CF
:102CF000854205D05A48854202D05A48854200D1C3
:102D000000E000BF208850B92389A2886188284646
:102D1000FFF7ABFFE1882846FFF79EFF25E02088FC
:102D200004280AD12389A28861882846FFF753FF27
:102D3000E1882846FFF742FF17E0208808280AD1DB
:102D40002389A28861882846FFF7FBFEE188284690
:102D5000FFF7EEFE09E02389A28861882846FFF785
:102D6000A6FEE1882846FFF795FE70BD2DE9F041EB
:102D700005460C4600260127608808B9022600E0B7
:102D80000026A088012801D1022700E00127208821
:102D9000A0B92389A28861882846FFF766FFE188E9
:102DA0002846FFF759FF23893A4631462846FFF760
:102DB00012FFE1882846FFF701FF13E02389A2886C
:102DC00061882846FFF707FFE1882846FFF7F6FEEF
:102DD00023893A4631462846FFF747FFE1882846CF
:102DE000FFF73AFFBDE8F0810A884B881A438B88C9
:102DF0001A43CB881A430B891A434B891A438B8990
:102E00001A43A0F8442070474FF6FF7181800021DB
:102E10000180C180418001727047002101804180A2
:102E20008180C180018141818181C1817047002100
:102E300001804180012181800021C1800181704792
:102E40000021018041808180C18001814181818197
:102E500070470000002C0140003401400004004095
:102E600000080040000C004021B1028842F001023D
:102E7000028004E002884FF6FE731A400280704719
:102E800031B1B0F8442042F40042A0F8442005E0FB
:102E9000B0F84420C2F30E02A0F8442070471AB1E3
:102EA00083890B43838102E083898B43838170474D
:102EB0008182704741EA0203A0F8483070471AB196
:102EC00083890B43838102E083898B43838170472D
:102ED00001894FF6F8721140018170470A460021BE
:102EE00001894FF68F73194011430181704730B546
:102EF00004460D4629462046FFF7F0FF208940F0A2
:102F00000700208130BD2DE9F04104460D461646EC
:102F10001F46602D06D13B46012231462046FFF771
:102F20005AFE05E03B46012231462046FFF79DFE52
:102F300029462046FFF7D2FF208940F00700208174
:102F4000BDE8F08130B50C4600210189C9B24FF6C9
:102F5000FF7505EA0325154325432943018130BD4B
:102F60002DE9F04105460E46174698460024434693
:102F70003A4631462846FFF7E5FF2C894FF6F870B0
:102F8000044044F007044FF68F70044044F070048E
:102F90002C81BDE8F081F0B504460D4616461F466B
:102FA0003B46324629462046FFF7CCFF208940F4B5
:102FB00080402081F0BD0185828270470A46002151
:102FC00001884FF68F731940114301807047F0B5A7
:102FD0000C4615461E460021002200230189028B63
:102FE000038C4FF6F877394021434FF6FC473A40BF
:102FF00040F201173A434FF6DD773B404FF6FF773B
:1030000007EA06172F433B43018102830384F0BD87
:103010000A460021018B4FF68F731940114301833B
:1030200070470A460021018B48F6FF7319404FF69E
:10303000FF7303EA02231943018370470A46002104
:10304000818B4FF68F7319401143818370470A4675
:103050000021818B48F6FF7319404FF6FF7303EA96
:10306000022319438183704721B1028842F0800214
:10307000028004E002884FF67F731A400280704796
:1030800021B1828842F00402828004E082884FF6F7
:10309000FB731A408280704721B1828842F0080297
:1030A000828004E082884FF6F7731A40828070476E
:1030B00021B1828842F00102828004E082884FF6CA
:1030C000FE731A40828070470A460021018B4FF63A
:1030D000F77319401143018370470A460021018BA1
:1030E0004FF2FF7319404FF6FF7303EA02231943AF
:1030F000018370470A460021818B4FF6F773194010
:103100001143818370470A460021818B4FF2FF7380
:1031100019404FF6FF7303EA022319438183704776
:103120000A460021018B4FF6FB73194011430183BE
:1031300070470A460021018B4FF6FF3319404FF6C6
:10314000FF7303EA02231943018370470A460021F3
:10315000818B4FF6FB7319401143818370470A46F8
:103160000021818B4FF6FF3319404FF6FF7303EABE
:1031700002231943818370470A460021018B4FF6D1
:103180007F7319401143018370470A460021018B68
:10319000C1F30E014FF6FF7303EA022319430183C3
:1031A00070470A460021818B4FF67F731940114307
:1031B000818370470A460021818BC1F30E014FF6CF
:1031C000FF7303EA02231943818370470A460021F3
:1031D000018C4FF6FD7319401143018470470A4674
:1031E0000021018C4FF6F773194011430184704799
:1031F0000A460021018C4FF6DF7319404FF6FF732A
:1032000003EA02131943018470470A460021018C26
:103210004FF67F7319404FF6FF7303EA0213194309
:10322000018470470A460021018C4FF6FF53194074
:103230004FF6FF7303EA02231943018470470A46DD
:103240000021018C4FF2FF7319404FF6FF7303EA20
:1032500002231943018470470A460021018C4DF670
:10326000FF7319404FF6FF7303EA023319430184D9
:10327000704730B5002301248C40A3B2048C9C43DA
:103280000484048C02FA01F5ADB22C43048430BDF1
:1032900030B5002304248C40A3B2048C9C430484E6
:1032A000048C02FA01F5ADB22C43048430BD70B534
:1032B0000346002000241846183001258D40ACB28A
:1032C0001D8CA5431D8409B1082909D100EB6100BB
:1032D000056825F0700505600568154305600EE07A
:1032E0000D1FC5F34E052844056825F4E04505602B
:1032F00005684FF6FF7606EA02263543056070BD85
:1033000021B1028842F00202028004E002884FF6F6
:10331000FD731A400280704721B1028842F0040216
:10332000028004E002884FF6FB731A400280704767
:1033300021B1828842F08002828004E082884FF6C8
:103340007F731A408280704702884FF6F7731A40E5
:10335000028002880A430280704782884FF68F738A
:103360001A40828082880A438280704702894FF621
:10337000F8731A40028102890A4302817047028968
:103380004FF67F731A40028102890A430281704717
:1033900081847047818570478186704701877047B7
:1033A00081877047A0F84010704702884FF6FF43AE
:1033B0001A40028002880A43028070470146888EC4
:1033C00070470146088F70470146888F7047014655
:1033D000B1F8400070470146888C70470146088D5F
:1033E000704702460020138A0B400BB1012000E019
:1033F00000207047CA430282704730B50246002061
:1034000000230024158A05EA0103958905EA0104D1
:1034100013B10CB1012000E0002030BDCA4302828C
:103420007047000010B50446FB48844209D10121D1
:103430008803FFF79FF800214FF48040FFF79AF8C8
:1034400032E0F648844209D101214804FFF79FF891
:1034500000214FF40030FFF79AF825E0F04884424D
:1034600009D101218804FFF792F800214FF4802050
:10347000FFF78DF818E0EB48844209D10121C80418
:10348000FFF785F800214FF40020FFF780F80BE0EC
:10349000E548844208D101210805FFF778F80021AA
:1034A0004FF48010FFF773F810BD2DE9F04786B098
:1034B00005460E460024A24600BFA1460027B0895B
:1034C00000B100BF2F462C8A4CF6FF700440F088F4
:1034D00004432C82AC894EF6F3100440B088318945
:1034E0000843718908430443AC81AC8A4FF6FF401E
:1034F0000440B0890443AC8201A8FEF7B4FFC6487B
:10350000874202D1DDF810A001E0DDF80CA0A88907
:1035100000F4004040B10AEBCA0000EB0A10316829
:103520004900B0FBF1F807E00AEBCA0000EB0A1013
:1035300031688900B0FBF1F86420B8FBF0F00401B9
:103540002009642101FB1089A88900F4004040B1E2
:10355000322000EBC900B0FBF1F000F0070004439B
:1035600008E0322000EB09106421B0FBF1F000F01C
:103570000F0004432C8106B0BDE8F0874FF41651CC
:10358000016000218180C18001810C2141810021E5
:103590008181704710B502460020108A4FF2FF0368
:1035A00018400B884C8823438C882343CC882343C2
:1035B0001843108210BD0021018041808180C180AC
:1035C000704721B1828942F40052828104E08289ED
:1035D0004DF6FF731A4082817047F0B50346002410
:1035E00000260025002040F66A17B94200D100BF2E
:1035F0001846C1F3421401F01F06012707FA06F529
:10360000012C01D10C3004E0022C01D1103000E07B
:1036100014301AB107682F43076002E00768AF4310
:103620000760F0BD1AB1838A0B43838202E0838A6C
:103630008B4383827047028A4FF6F0731A400282EE
:10364000028A0A430282704782894FF2FF731A404E
:10365000828182890A438281704721B1828942F046
:103660000202828104E082894FF6FD731A40828152
:103670007047028A4FF6DF731A400282028A0A43B9
:103680000282704721B1028A42F48042028204E041
:10369000028A4BF6FF731A4002827047C1F3080298
:1036A0008280704701468888C0F30800704781898E
:1036B00041F0010181817047028BD2B20283028BFB
:1036C00042EA012202837047028B02F47F420283A6
:1036D000028B0A430283704721B1828A42F02002A2
:1036E000828204E0828A4FF6DF731A40828270473A
:1036F00021B1828A42F01002828204E0828A4FF66F
:10370000EF731A408282704721B1828A42F0080228
:10371000828204E0828A4FF6F7731A4082827047F1
:1037200021B1828942F40042828103E08289C2F39E
:103730000E028281704721B1828A42F40062828245
:1037400004E0828A4FF2FF731A4082827047828AB5
:103750004FF6FB731A408282828A0A438282704744
:1037600021B1828A42F00202828204E0828A4FF60C
:10377000FD731A408282704702460020B1F5007F37
:1037800000D100BF13880B400BB1012000E00020E6
:10379000704701F40072B2F5007F00D100BFCA4348
:1037A0000280704770B502460024002300250020E7
:1037B00040F66A16B14200D100BFC1F3421501F0D4
:1037C0001F03012606FA03F3012D02D19689334027
:1037D00006E0022D02D1168A334001E0968A33407A
:1037E0000C12012606FA04F41688344013B10CB109
:1037F000012000E0002070BD10B50022002340F63B
:103800006A14A14200D100BF0A1201249440A3B25D
:10381000DC43048010BD000000380140004400403B
:1038200000480040004C00400050004040EA0103C6
:103830009B0703D009E008C9121F08C0042AFAD266
:1038400003E011F8013B00F8013B521EF9D270472A
:10385000F0B480EA0102D40F4200B2EB410F02D271
:103860000246084611464A0042D0C30DDDB2C1F3FC
:10387000C752AD1A202D35DAC1F3160141F400020A
:1038800004B15242C5F1200602FA06F12A41104461
:10389000B3EBD05F23D0C4B1012DA0EBC35009DC42
:1038A000F0BC4FF0004202EAC352DBB200F5000068
:1038B00000F028B9400000F1807000EBC350A0F187
:1038C000807040EAD170490009E0490841EAC071BE
:1038D000A0EBC35000F50000400800EBC350F0BC63
:1038E00000F007B96142012202EB4101001BF6E73B
:1038F000F0BC704781F00041AAE780F00040A7E7E4
:1039000080EA010210B502F00043400022D04A00D4
:103910001FD0010E01EB1261C0F35600C2F3560234
:1039200040F4000042F40002A0FB022000047F39B2
:10393000140400D0401C50EA124001D44000491E3B
:10394000C2B20C0604EBD010401C4008802A02D002
:1039500003E0002010BD20F00100002900DA002063
:10396000184310BD30B480EA010202F0004530F087
:10397000004221F0004013D090B1C30DD40DC2F32A
:103980001601C0F31600E41A41F4000140F40002ED
:103990007D34914201D3641C00E04900002C02DA1E
:1039A00030BC002070474FF400000023914201D347
:1039B000891A034340084FEA4101F7D151B19142BE
:1039C00002D14FF0004105E002D24FF0010101E0C9
:1039D0006FF0010103EBC450284430BC00F089B8FB
:1039E00096230022114600F08DB820F00040C10D52
:1039F000C0F3160040F400007F2901DA0020704770
:103A0000962903DCC1F19601C84070479639884079
:103A1000704700F0004230F000400AD0C10D01F5BF
:103A20006071C0F3160042EA0151C2084007114319
:103A3000704700200146704730B5041E71F1000444
:103A400004DB4FF00044404264EB0101141E73F1AB
:103A5000000405DB1C464FF00043524263EB0403B5
:103A60008B4208BF824230BD002801DBC0F100401C
:103A7000002901DBC1F1004181427047002801DBD0
:103A8000C0F10040002901DBC1F1004188427047CC
:103A90002DE9F05F0546002092469B468846064683
:103AA000814640241BE0284641464746224600F016
:103AB00078F853465A46C01A914110D31146184619
:103AC000224600F05FF82D1A67EB01084F462246A8
:103AD0000120002100F056F817EB00094E41201E8E
:103AE000A4F10104DFDC484631462A464346BDE8DE
:103AF000F09F0029A8BF7047401C490008BF20F074
:103B00000100704710B4B0FA80FC00FA0CF050EAE3
:103B1000010404BF10BC704749B1CCF1200421FA64
:103B200004F411FA0CF118BF012121430843A3EB5F
:103B30000C01CB1D4FEA00614FEA102042BF00206C
:103B400010BC704700EBC35010440029A4BF10BC48
:103B50007047401C490008BF20F0010010BC7047AE
:103B6000064C074D06E0E06840F0010394E80700CA
:103B700098471034AC42F6D3FCF7BCFA3444000842
:103B800054440008202A04DB203A00FA02F1002005
:103B900070479140C2F1200320FA03F3194390408B
:103BA0007047202A04DB203A21FA02F000217047F6
:103BB00021FA02F3D040C2F1200291400843194695
:103BC000704700000FB4084B10B504A902AA03986F
:103BD00000F01CF8044602A9002000F02DF9204650
:103BE00010BC5DF814FB0000393E000802E008C874
:103BF000121F08C1002AFAD170477047002001E067
:103C000001C1121F002AFBD1704700002DE9FF4FB0
:103C10008BB09A460F460446002606E025280BD0B6
:103C200052460D999047641C761C20780028F5D1E7
:103C30000FB03046BDE8F08F0025A94601227D492E
:103C400000E0054314F8013F203B02FA03F008426C
:103C5000F7D120782E2817D114F8010F45F004056C
:103C60002A280ED06FF02F022078A0F13001092908
:103C70000AD809EB890102EB410100EB0109641C40
:103C8000F2E757F8049B641C20786C280DD004DC04
:103C90004C2812D06A2811D104E074280DD07A285B
:103CA0000CD10AE045F4001507E0617845F4801571
:103CB000814202D1641C05F58015641C20786928B6
:103CC0003ED006DC0028B3D063280BD0642804D192
:103CD00036E0732810D075285CD052460D99904775
:103CE000761CA5E017F8040B8DF8000000208DF875
:103CF0000100E846012003E057F8048B4FF0FF3045
:103D000069074FF0000501D40AE06D1C4D450DDA3E
:103D10008542FADB18F805100029F6D106E06D1C83
:103D20008542FCDB18F805100029F8D12E4404E088
:103D300018F8010B52460D9990476D1EF8D277E0A6
:103D400000200A90C5F302504FF00A0B02280CD055
:103D500001CFC117021E71F100020CDA0023D0EB73
:103D6000030063EB01012D2208E0FF1D27F0070788
:103D7000F7E80201EEE72A0504D52B228DF824206E
:103D8000012203E0EA070FD02022F7E70DF1200817
:103D9000089218E000200A90C5F302504FF00A0B79
:103DA000022803D001CF00210022EFE7FF1D27F0FA
:103DB0000707F7E80201F7E75A460A9BFFF768FE94
:103DC000303208F8012D50EA0102F5D1ADEB0800C0
:103DD00000F1200B680701D44FF00109D94502DD3D
:103DE000A9EB0B0000E000208146002506E009A8B1
:103DF0005246405D0D9990476D1C761C089885428F
:103E0000F5DB04E0302052460D999047761CB9F15D
:103E10000001A9F10109F5DC05E018F8010B524693
:103E20000D999047761CBBF10001ABF1010BF4DC5E
:103E3000641CFAE6092801000A68531C0B60107024
:103E400070470000000000000000000000000000BB
:103E50000000000000F80000000000000033300007
:103E6000000000100C06100C06000000000000000E
:103E7000000040C07840C0784000043F04043F0484
:103E80000400007088FC08300000001820FF211E8C
:103E90000000F008F000E018000000211C031E21C3
:103EA0001E0000F00888700000001E21232419273E
:103EB000211010160E00000000000000000000009D
:103EC0000000000000E018040200000000071820B5
:103ED000400000020418E000000000402018070025
:103EE0000000404080F0804040000202010F0102CB
:103EF0000200000000F0000000000101011F0101AC
:103F00000100000000000000000080B07000000010
:103F1000000000000000000000000001010101019C
:103F2000010100000000000000000030300000002F
:103F30000000000000008060180400601806010006
:103F4000000000E010080810E000000F1020201012
:103F50000F00001010F8000000000020203F20207B
:103F60000000007008080888700000302824222112
:103F700030000030088888483000001820202011C8
:103F80000E000000C02010F8000000070424243FA9
:103F9000240000F808888808080000192120201152
:103FA0000E0000E0108888180000000F112020117A
:103FB0000E0000380808C83808000000003F000064
:103FC00000000070880808887000001C222121224F
:103FD0001C0000E010080810E0000000312222114F
:103FE0000F00000000C0C0000000000000303000E2
:103FF0000000000000800000000000008060000061
:104000000000000080402010080000010204081099
:1040100020004040404040404000040404040404A8
:104020000400000810204080000000201008040256
:104030000100007048080808F00000000030360158
:104040000000C030C828E810E00007182724231417
:104050000B000000C038E0000000203C23020227D3
:10406000382008F8888888700000203F2020201120
:104070000E00C0300808080838000718202020105B
:10408000080008F808080810E000203F2020201051
:104090000F0008F88888E8081000203F202023201F
:1040A000180008F88888E8081000203F2000030066
:1040B0000000C03008080838000007182020221E21
:1040C000020008F808000008F808203F210101213B
:1040D0003F20000808F8080800000020203F2020AA
:1040E000000000000808F8080800C08080807F00F9
:1040F000000008F888C028180800203F2001263852
:10410000200008F8080000000000203F20202020A8
:10411000300008F8F800F8F80800203F003F003FA2
:10412000200008F830C00008F808203F20000718D9
:104130003F00E01008080810E0000F1020202010B9
:104140000F0008F808080808F000203F21010101CD
:104150000000E01008080810E0000F182424385070
:104160004F0008F8888888887000203F2000030CE2
:1041700030200070880808083800003820212122EB
:104180001C00180808F8080818000000203F20004C
:10419000000008F808000008F808001F2020202070
:1041A0001F000878880000C83808000007380E0192
:1041B0000000F80800F80008F800033C0700073C7E
:1041C0000300081868808068180820302C03032C2E
:1041D00030200838C800C83808000000203F200000
:1041E000000010080808C8380800203826212020C0
:1041F0001800000000FE020202000000007F4040A4
:104200004000000C30C00000000000000001063833
:10421000C00000020202FE000000004040407F009B
:104220000000000004020202040000000000000080
:10423000000000000000000000008080808080807E
:104240008080000202040000000000000000000066
:1042500000000000808080800000001924222222BB
:104260003F2008F8008080000000003F112020114E
:104270000E000000008080800000000E1120202031
:104280001100000000808088F800000E112020102E
:104290003F200000808080800000001F2222222218
:1042A0001300008080F0888888180020203F20209C
:1042B00000000000808080808000006B94949493C4
:1042C000600008F8008080800000203F210000206E
:1042D0003F2000809898000000000020203F202010
:1042E0000000000000809898000000C08080807F5F
:1042F000000008F8000080808000203F24022D305C
:104300002000000808F8000000000020203F2020C6
:1043100000008080808080808000203F20003F203F
:10432000003F8080008080800000203F210000202E
:104330003F200000808080800000001F202020207F
:104340001F00808000808000000080FFA1202011DD
:104350000E000000008080808000000E112020A050
:10436000FF80808080008080800020203F2120000E
:1043700001000000808080808000003324242424F9
:104380001900008080E0808000000000001F2020D5
:1043900000008080000000808000001F202020108E
:1043A0003F20808080000080808000010E30080661
:1043B000010080800080008080800F300C030C3072
:1043C0000F0000808000808080000020312E0E31A0
:1043D0002000808080000080808080818E701806A0
:1043E000010000808080808080000021302C22210C
:1043F000300000000000807C020200000000003F4E
:10440000404000000000FF00000000000000FF002E
:1044100000000002027C800000000040403F0000DD
:104420000000000601010202040400000000000078
:10443000000000005444000800000020C0000000FC
:10444000EC3B000814450008C000002000040000F8
:10445000FC3B0008000000000000000000A24A042D
:104460000000000000000000010203040607080924
:104470000000000000000000050000000000000037
:10448000000000000000000000000000000000002C
:1044900000000000000000000000B44200003442B0
:1044A0000000DC4200008C420000F042000070423C
:1044B0000000B4420000074300008C420000DC42D0
:1044C000000070420000F0420000B44200000743C8
:1044D00000008C420000DC42000070420000F0420C
:1044E0000000B442000034420000DC4200008C4274
:1044F0000000F042000070420000000000000000D8
:104500000000000001020304010203040607080979
:044510000204060893
:04000005080000ED02
:00000001FF
